{
  "address": "0x3B45f74Fdf689b3AC3afE0C03F2C120caAc784EC",
  "abi": [
    {
      "inputs": [
        {
          "internalType": "string",
          "name": "_name",
          "type": "string"
        },
        {
          "internalType": "string",
          "name": "_symbol",
          "type": "string"
        },
        {
          "internalType": "uint8",
          "name": "_sharedDecimals",
          "type": "uint8"
        },
        {
          "internalType": "address",
          "name": "_layerZeroEndpoint",
          "type": "address"
        }
      ],
      "stateMutability": "nonpayable",
      "type": "constructor"
    },
    {
      "anonymous": false,
      "inputs": [
        {
          "indexed": true,
          "internalType": "address",
          "name": "owner",
          "type": "address"
        },
        {
          "indexed": true,
          "internalType": "address",
          "name": "spender",
          "type": "address"
        },
        {
          "indexed": false,
          "internalType": "uint256",
          "name": "value",
          "type": "uint256"
        }
      ],
      "name": "Approval",
      "type": "event"
    },
    {
      "anonymous": false,
      "inputs": [
        {
          "indexed": true,
          "internalType": "uint16",
          "name": "_srcChainId",
          "type": "uint16"
        },
        {
          "indexed": false,
          "internalType": "bytes",
          "name": "_srcAddress",
          "type": "bytes"
        },
        {
          "indexed": false,
          "internalType": "uint64",
          "name": "_nonce",
          "type": "uint64"
        },
        {
          "indexed": false,
          "internalType": "bytes32",
          "name": "_hash",
          "type": "bytes32"
        }
      ],
      "name": "CallOFTReceivedSuccess",
      "type": "event"
    },
    {
      "anonymous": false,
      "inputs": [
        {
          "indexed": false,
          "internalType": "uint16",
          "name": "_srcChainId",
          "type": "uint16"
        },
        {
          "indexed": false,
          "internalType": "bytes",
          "name": "_srcAddress",
          "type": "bytes"
        },
        {
          "indexed": false,
          "internalType": "uint64",
          "name": "_nonce",
          "type": "uint64"
        },
        {
          "indexed": false,
          "internalType": "bytes",
          "name": "_payload",
          "type": "bytes"
        },
        {
          "indexed": false,
          "internalType": "bytes",
          "name": "_reason",
          "type": "bytes"
        }
      ],
      "name": "MessageFailed",
      "type": "event"
    },
    {
      "anonymous": false,
      "inputs": [
        {
          "indexed": false,
          "internalType": "address",
          "name": "_address",
          "type": "address"
        }
      ],
      "name": "NonContractAddress",
      "type": "event"
    },
    {
      "anonymous": false,
      "inputs": [
        {
          "indexed": true,
          "internalType": "address",
          "name": "previousOwner",
          "type": "address"
        },
        {
          "indexed": true,
          "internalType": "address",
          "name": "newOwner",
          "type": "address"
        }
      ],
      "name": "OwnershipTransferred",
      "type": "event"
    },
    {
      "anonymous": false,
      "inputs": [
        {
          "indexed": true,
          "internalType": "uint16",
          "name": "_srcChainId",
          "type": "uint16"
        },
        {
          "indexed": true,
          "internalType": "address",
          "name": "_to",
          "type": "address"
        },
        {
          "indexed": false,
          "internalType": "uint256",
          "name": "_amount",
          "type": "uint256"
        }
      ],
      "name": "ReceiveFromChain",
      "type": "event"
    },
    {
      "anonymous": false,
      "inputs": [
        {
          "indexed": false,
          "internalType": "uint16",
          "name": "_srcChainId",
          "type": "uint16"
        },
        {
          "indexed": false,
          "internalType": "bytes",
          "name": "_srcAddress",
          "type": "bytes"
        },
        {
          "indexed": false,
          "internalType": "uint64",
          "name": "_nonce",
          "type": "uint64"
        },
        {
          "indexed": false,
          "internalType": "bytes32",
          "name": "_payloadHash",
          "type": "bytes32"
        }
      ],
      "name": "RetryMessageSuccess",
      "type": "event"
    },
    {
      "anonymous": false,
      "inputs": [
        {
          "indexed": true,
          "internalType": "uint16",
          "name": "_dstChainId",
          "type": "uint16"
        },
        {
          "indexed": true,
          "internalType": "address",
          "name": "_from",
          "type": "address"
        },
        {
          "indexed": true,
          "internalType": "bytes32",
          "name": "_toAddress",
          "type": "bytes32"
        },
        {
          "indexed": false,
          "internalType": "uint256",
          "name": "_amount",
          "type": "uint256"
        }
      ],
      "name": "SendToChain",
      "type": "event"
    },
    {
      "anonymous": false,
      "inputs": [
        {
          "indexed": false,
          "internalType": "uint16",
          "name": "feeBp",
          "type": "uint16"
        }
      ],
      "name": "SetDefaultFeeBp",
      "type": "event"
    },
    {
      "anonymous": false,
      "inputs": [
        {
          "indexed": false,
          "internalType": "uint16",
          "name": "dstchainId",
          "type": "uint16"
        },
        {
          "indexed": false,
          "internalType": "bool",
          "name": "enabled",
          "type": "bool"
        },
        {
          "indexed": false,
          "internalType": "uint16",
          "name": "feeBp",
          "type": "uint16"
        }
      ],
      "name": "SetFeeBp",
      "type": "event"
    },
    {
      "anonymous": false,
      "inputs": [
        {
          "indexed": false,
          "internalType": "address",
          "name": "feeOwner",
          "type": "address"
        }
      ],
      "name": "SetFeeOwner",
      "type": "event"
    },
    {
      "anonymous": false,
      "inputs": [
        {
          "indexed": false,
          "internalType": "uint16",
          "name": "_dstChainId",
          "type": "uint16"
        },
        {
          "indexed": false,
          "internalType": "uint16",
          "name": "_type",
          "type": "uint16"
        },
        {
          "indexed": false,
          "internalType": "uint256",
          "name": "_minDstGas",
          "type": "uint256"
        }
      ],
      "name": "SetMinDstGas",
      "type": "event"
    },
    {
      "anonymous": false,
      "inputs": [
        {
          "indexed": false,
          "internalType": "address",
          "name": "precrime",
          "type": "address"
        }
      ],
      "name": "SetPrecrime",
      "type": "event"
    },
    {
      "anonymous": false,
      "inputs": [
        {
          "indexed": false,
          "internalType": "uint16",
          "name": "_remoteChainId",
          "type": "uint16"
        },
        {
          "indexed": false,
          "internalType": "bytes",
          "name": "_path",
          "type": "bytes"
        }
      ],
      "name": "SetTrustedRemote",
      "type": "event"
    },
    {
      "anonymous": false,
      "inputs": [
        {
          "indexed": false,
          "internalType": "uint16",
          "name": "_remoteChainId",
          "type": "uint16"
        },
        {
          "indexed": false,
          "internalType": "bytes",
          "name": "_remoteAddress",
          "type": "bytes"
        }
      ],
      "name": "SetTrustedRemoteAddress",
      "type": "event"
    },
    {
      "anonymous": false,
      "inputs": [
        {
          "indexed": false,
          "internalType": "bool",
          "name": "_useCustomAdapterParams",
          "type": "bool"
        }
      ],
      "name": "SetUseCustomAdapterParams",
      "type": "event"
    },
    {
      "anonymous": false,
      "inputs": [
        {
          "indexed": true,
          "internalType": "address",
          "name": "from",
          "type": "address"
        },
        {
          "indexed": true,
          "internalType": "address",
          "name": "to",
          "type": "address"
        },
        {
          "indexed": false,
          "internalType": "uint256",
          "name": "value",
          "type": "uint256"
        }
      ],
      "name": "Transfer",
      "type": "event"
    },
    {
      "inputs": [],
      "name": "BP_DENOMINATOR",
      "outputs": [
        {
          "internalType": "uint256",
          "name": "",
          "type": "uint256"
        }
      ],
      "stateMutability": "view",
      "type": "function"
    },
    {
      "inputs": [],
      "name": "DEFAULT_PAYLOAD_SIZE_LIMIT",
      "outputs": [
        {
          "internalType": "uint256",
          "name": "",
          "type": "uint256"
        }
      ],
      "stateMutability": "view",
      "type": "function"
    },
    {
      "inputs": [],
      "name": "NO_EXTRA_GAS",
      "outputs": [
        {
          "internalType": "uint256",
          "name": "",
          "type": "uint256"
        }
      ],
      "stateMutability": "view",
      "type": "function"
    },
    {
      "inputs": [],
      "name": "PT_SEND",
      "outputs": [
        {
          "internalType": "uint8",
          "name": "",
          "type": "uint8"
        }
      ],
      "stateMutability": "view",
      "type": "function"
    },
    {
      "inputs": [],
      "name": "PT_SEND_AND_CALL",
      "outputs": [
        {
          "internalType": "uint8",
          "name": "",
          "type": "uint8"
        }
      ],
      "stateMutability": "view",
      "type": "function"
    },
    {
      "inputs": [
        {
          "internalType": "address",
          "name": "owner",
          "type": "address"
        },
        {
          "internalType": "address",
          "name": "spender",
          "type": "address"
        }
      ],
      "name": "allowance",
      "outputs": [
        {
          "internalType": "uint256",
          "name": "",
          "type": "uint256"
        }
      ],
      "stateMutability": "view",
      "type": "function"
    },
    {
      "inputs": [
        {
          "internalType": "address",
          "name": "spender",
          "type": "address"
        },
        {
          "internalType": "uint256",
          "name": "amount",
          "type": "uint256"
        }
      ],
      "name": "approve",
      "outputs": [
        {
          "internalType": "bool",
          "name": "",
          "type": "bool"
        }
      ],
      "stateMutability": "nonpayable",
      "type": "function"
    },
    {
      "inputs": [
        {
          "internalType": "address",
          "name": "account",
          "type": "address"
        }
      ],
      "name": "balanceOf",
      "outputs": [
        {
          "internalType": "uint256",
          "name": "",
          "type": "uint256"
        }
      ],
      "stateMutability": "view",
      "type": "function"
    },
    {
      "inputs": [
        {
          "internalType": "uint16",
          "name": "_srcChainId",
          "type": "uint16"
        },
        {
          "internalType": "bytes",
          "name": "_srcAddress",
          "type": "bytes"
        },
        {
          "internalType": "uint64",
          "name": "_nonce",
          "type": "uint64"
        },
        {
          "internalType": "bytes32",
          "name": "_from",
          "type": "bytes32"
        },
        {
          "internalType": "address",
          "name": "_to",
          "type": "address"
        },
        {
          "internalType": "uint256",
          "name": "_amount",
          "type": "uint256"
        },
        {
          "internalType": "bytes",
          "name": "_payload",
          "type": "bytes"
        },
        {
          "internalType": "uint256",
          "name": "_gasForCall",
          "type": "uint256"
        }
      ],
      "name": "callOnOFTReceived",
      "outputs": [],
      "stateMutability": "nonpayable",
      "type": "function"
    },
    {
      "inputs": [
        {
          "internalType": "uint16",
          "name": "",
          "type": "uint16"
        }
      ],
      "name": "chainIdToFeeBps",
      "outputs": [
        {
          "internalType": "uint16",
          "name": "feeBP",
          "type": "uint16"
        },
        {
          "internalType": "bool",
          "name": "enabled",
          "type": "bool"
        }
      ],
      "stateMutability": "view",
      "type": "function"
    },
    {
      "inputs": [],
      "name": "circulatingSupply",
      "outputs": [
        {
          "internalType": "uint256",
          "name": "",
          "type": "uint256"
        }
      ],
      "stateMutability": "view",
      "type": "function"
    },
    {
      "inputs": [
        {
          "internalType": "uint16",
          "name": "",
          "type": "uint16"
        },
        {
          "internalType": "bytes",
          "name": "",
          "type": "bytes"
        },
        {
          "internalType": "uint64",
          "name": "",
          "type": "uint64"
        }
      ],
      "name": "creditedPackets",
      "outputs": [
        {
          "internalType": "bool",
          "name": "",
          "type": "bool"
        }
      ],
      "stateMutability": "view",
      "type": "function"
    },
    {
      "inputs": [],
      "name": "decimals",
      "outputs": [
        {
          "internalType": "uint8",
          "name": "",
          "type": "uint8"
        }
      ],
      "stateMutability": "view",
      "type": "function"
    },
    {
      "inputs": [
        {
          "internalType": "address",
          "name": "spender",
          "type": "address"
        },
        {
          "internalType": "uint256",
          "name": "subtractedValue",
          "type": "uint256"
        }
      ],
      "name": "decreaseAllowance",
      "outputs": [
        {
          "internalType": "bool",
          "name": "",
          "type": "bool"
        }
      ],
      "stateMutability": "nonpayable",
      "type": "function"
    },
    {
      "inputs": [],
      "name": "defaultFeeBp",
      "outputs": [
        {
          "internalType": "uint16",
          "name": "",
          "type": "uint16"
        }
      ],
      "stateMutability": "view",
      "type": "function"
    },
    {
      "inputs": [
        {
          "internalType": "uint16",
          "name": "_dstChainId",
          "type": "uint16"
        },
        {
          "internalType": "bytes32",
          "name": "_toAddress",
          "type": "bytes32"
        },
        {
          "internalType": "uint256",
          "name": "_amount",
          "type": "uint256"
        },
        {
          "internalType": "bytes",
          "name": "_payload",
          "type": "bytes"
        },
        {
          "internalType": "uint64",
          "name": "_dstGasForCall",
          "type": "uint64"
        },
        {
          "internalType": "bool",
          "name": "_useZro",
          "type": "bool"
        },
        {
          "internalType": "bytes",
          "name": "_adapterParams",
          "type": "bytes"
        }
      ],
      "name": "estimateSendAndCallFee",
      "outputs": [
        {
          "internalType": "uint256",
          "name": "nativeFee",
          "type": "uint256"
        },
        {
          "internalType": "uint256",
          "name": "zroFee",
          "type": "uint256"
        }
      ],
      "stateMutability": "view",
      "type": "function"
    },
    {
      "inputs": [
        {
          "internalType": "uint16",
          "name": "_dstChainId",
          "type": "uint16"
        },
        {
          "internalType": "bytes32",
          "name": "_toAddress",
          "type": "bytes32"
        },
        {
          "internalType": "uint256",
          "name": "_amount",
          "type": "uint256"
        },
        {
          "internalType": "bool",
          "name": "_useZro",
          "type": "bool"
        },
        {
          "internalType": "bytes",
          "name": "_adapterParams",
          "type": "bytes"
        }
      ],
      "name": "estimateSendFee",
      "outputs": [
        {
          "internalType": "uint256",
          "name": "nativeFee",
          "type": "uint256"
        },
        {
          "internalType": "uint256",
          "name": "zroFee",
          "type": "uint256"
        }
      ],
      "stateMutability": "view",
      "type": "function"
    },
    {
      "inputs": [
        {
          "internalType": "uint16",
          "name": "",
          "type": "uint16"
        },
        {
          "internalType": "bytes",
          "name": "",
          "type": "bytes"
        },
        {
          "internalType": "uint64",
          "name": "",
          "type": "uint64"
        }
      ],
      "name": "failedMessages",
      "outputs": [
        {
          "internalType": "bytes32",
          "name": "",
          "type": "bytes32"
        }
      ],
      "stateMutability": "view",
      "type": "function"
    },
    {
      "inputs": [],
      "name": "fee",
      "outputs": [
        {
          "internalType": "uint256",
          "name": "",
          "type": "uint256"
        }
      ],
      "stateMutability": "view",
      "type": "function"
    },
    {
      "inputs": [],
      "name": "feeOwner",
      "outputs": [
        {
          "internalType": "address",
          "name": "",
          "type": "address"
        }
      ],
      "stateMutability": "view",
      "type": "function"
    },
    {
      "inputs": [
        {
          "internalType": "uint16",
          "name": "_srcChainId",
          "type": "uint16"
        },
        {
          "internalType": "bytes",
          "name": "_srcAddress",
          "type": "bytes"
        }
      ],
      "name": "forceResumeReceive",
      "outputs": [],
      "stateMutability": "nonpayable",
      "type": "function"
    },
    {
      "inputs": [
        {
          "internalType": "uint16",
          "name": "_version",
          "type": "uint16"
        },
        {
          "internalType": "uint16",
          "name": "_chainId",
          "type": "uint16"
        },
        {
          "internalType": "address",
          "name": "",
          "type": "address"
        },
        {
          "internalType": "uint256",
          "name": "_configType",
          "type": "uint256"
        }
      ],
      "name": "getConfig",
      "outputs": [
        {
          "internalType": "bytes",
          "name": "",
          "type": "bytes"
        }
      ],
      "stateMutability": "view",
      "type": "function"
    },
    {
      "inputs": [
        {
          "internalType": "uint16",
          "name": "_remoteChainId",
          "type": "uint16"
        }
      ],
      "name": "getTrustedRemoteAddress",
      "outputs": [
        {
          "internalType": "bytes",
          "name": "",
          "type": "bytes"
        }
      ],
      "stateMutability": "view",
      "type": "function"
    },
    {
      "inputs": [
        {
          "internalType": "address",
          "name": "spender",
          "type": "address"
        },
        {
          "internalType": "uint256",
          "name": "addedValue",
          "type": "uint256"
        }
      ],
      "name": "increaseAllowance",
      "outputs": [
        {
          "internalType": "bool",
          "name": "",
          "type": "bool"
        }
      ],
      "stateMutability": "nonpayable",
      "type": "function"
    },
    {
      "inputs": [
        {
          "internalType": "uint16",
          "name": "_srcChainId",
          "type": "uint16"
        },
        {
          "internalType": "bytes",
          "name": "_srcAddress",
          "type": "bytes"
        }
      ],
      "name": "isTrustedRemote",
      "outputs": [
        {
          "internalType": "bool",
          "name": "",
          "type": "bool"
        }
      ],
      "stateMutability": "view",
      "type": "function"
    },
    {
      "inputs": [],
      "name": "lzEndpoint",
      "outputs": [
        {
          "internalType": "contract ILayerZeroEndpoint",
          "name": "",
          "type": "address"
        }
      ],
      "stateMutability": "view",
      "type": "function"
    },
    {
      "inputs": [
        {
          "internalType": "uint16",
          "name": "_srcChainId",
          "type": "uint16"
        },
        {
          "internalType": "bytes",
          "name": "_srcAddress",
          "type": "bytes"
        },
        {
          "internalType": "uint64",
          "name": "_nonce",
          "type": "uint64"
        },
        {
          "internalType": "bytes",
          "name": "_payload",
          "type": "bytes"
        }
      ],
      "name": "lzReceive",
      "outputs": [],
      "stateMutability": "nonpayable",
      "type": "function"
    },
    {
      "inputs": [
        {
          "internalType": "uint16",
          "name": "",
          "type": "uint16"
        },
        {
          "internalType": "uint16",
          "name": "",
          "type": "uint16"
        }
      ],
      "name": "minDstGasLookup",
      "outputs": [
        {
          "internalType": "uint256",
          "name": "",
          "type": "uint256"
        }
      ],
      "stateMutability": "view",
      "type": "function"
    },
    {
      "inputs": [
        {
          "internalType": "address",
          "name": "_to",
          "type": "address"
        },
        {
          "internalType": "uint256",
          "name": "_amount",
          "type": "uint256"
        }
      ],
      "name": "mint",
      "outputs": [],
      "stateMutability": "payable",
      "type": "function"
    },
    {
      "inputs": [],
      "name": "name",
      "outputs": [
        {
          "internalType": "string",
          "name": "",
          "type": "string"
        }
      ],
      "stateMutability": "view",
      "type": "function"
    },
    {
      "inputs": [
        {
          "internalType": "uint16",
          "name": "_srcChainId",
          "type": "uint16"
        },
        {
          "internalType": "bytes",
          "name": "_srcAddress",
          "type": "bytes"
        },
        {
          "internalType": "uint64",
          "name": "_nonce",
          "type": "uint64"
        },
        {
          "internalType": "bytes",
          "name": "_payload",
          "type": "bytes"
        }
      ],
      "name": "nonblockingLzReceive",
      "outputs": [],
      "stateMutability": "nonpayable",
      "type": "function"
    },
    {
      "inputs": [],
      "name": "owner",
      "outputs": [
        {
          "internalType": "address",
          "name": "",
          "type": "address"
        }
      ],
      "stateMutability": "view",
      "type": "function"
    },
    {
      "inputs": [
        {
          "internalType": "uint16",
          "name": "",
          "type": "uint16"
        }
      ],
      "name": "payloadSizeLimitLookup",
      "outputs": [
        {
          "internalType": "uint256",
          "name": "",
          "type": "uint256"
        }
      ],
      "stateMutability": "view",
      "type": "function"
    },
    {
      "inputs": [],
      "name": "precrime",
      "outputs": [
        {
          "internalType": "address",
          "name": "",
          "type": "address"
        }
      ],
      "stateMutability": "view",
      "type": "function"
    },
    {
      "inputs": [
        {
          "internalType": "uint16",
          "name": "_dstChainId",
          "type": "uint16"
        },
        {
          "internalType": "uint256",
          "name": "_amount",
          "type": "uint256"
        }
      ],
      "name": "quoteOFTFee",
      "outputs": [
        {
          "internalType": "uint256",
          "name": "fee",
          "type": "uint256"
        }
      ],
      "stateMutability": "view",
      "type": "function"
    },
    {
      "inputs": [],
      "name": "renounceOwnership",
      "outputs": [],
      "stateMutability": "nonpayable",
      "type": "function"
    },
    {
      "inputs": [
        {
          "internalType": "uint16",
          "name": "_srcChainId",
          "type": "uint16"
        },
        {
          "internalType": "bytes",
          "name": "_srcAddress",
          "type": "bytes"
        },
        {
          "internalType": "uint64",
          "name": "_nonce",
          "type": "uint64"
        },
        {
          "internalType": "bytes",
          "name": "_payload",
          "type": "bytes"
        }
      ],
      "name": "retryMessage",
      "outputs": [],
      "stateMutability": "payable",
      "type": "function"
    },
    {
      "inputs": [
        {
          "internalType": "address",
          "name": "_from",
          "type": "address"
        },
        {
          "internalType": "uint16",
          "name": "_dstChainId",
          "type": "uint16"
        },
        {
          "internalType": "bytes32",
          "name": "_toAddress",
          "type": "bytes32"
        },
        {
          "internalType": "uint256",
          "name": "_amount",
          "type": "uint256"
        },
        {
          "internalType": "uint256",
          "name": "_minAmount",
          "type": "uint256"
        },
        {
          "internalType": "bytes",
          "name": "_payload",
          "type": "bytes"
        },
        {
          "internalType": "uint64",
          "name": "_dstGasForCall",
          "type": "uint64"
        },
        {
          "components": [
            {
              "internalType": "address payable",
              "name": "refundAddress",
              "type": "address"
            },
            {
              "internalType": "address",
              "name": "zroPaymentAddress",
              "type": "address"
            },
            {
              "internalType": "bytes",
              "name": "adapterParams",
              "type": "bytes"
            }
          ],
          "internalType": "struct ICommonOFT.LzCallParams",
          "name": "_callParams",
          "type": "tuple"
        }
      ],
      "name": "sendAndCall",
      "outputs": [],
      "stateMutability": "payable",
      "type": "function"
    },
    {
      "inputs": [
        {
          "internalType": "address",
          "name": "_from",
          "type": "address"
        },
        {
          "internalType": "uint16",
          "name": "_dstChainId",
          "type": "uint16"
        },
        {
          "internalType": "bytes32",
          "name": "_toAddress",
          "type": "bytes32"
        },
        {
          "internalType": "uint256",
          "name": "_amount",
          "type": "uint256"
        },
        {
          "internalType": "uint256",
          "name": "_minAmount",
          "type": "uint256"
        },
        {
          "components": [
            {
              "internalType": "address payable",
              "name": "refundAddress",
              "type": "address"
            },
            {
              "internalType": "address",
              "name": "zroPaymentAddress",
              "type": "address"
            },
            {
              "internalType": "bytes",
              "name": "adapterParams",
              "type": "bytes"
            }
          ],
          "internalType": "struct ICommonOFT.LzCallParams",
          "name": "_callParams",
          "type": "tuple"
        }
      ],
      "name": "sendFrom",
      "outputs": [],
      "stateMutability": "payable",
      "type": "function"
    },
    {
      "inputs": [
        {
          "internalType": "uint16",
          "name": "_version",
          "type": "uint16"
        },
        {
          "internalType": "uint16",
          "name": "_chainId",
          "type": "uint16"
        },
        {
          "internalType": "uint256",
          "name": "_configType",
          "type": "uint256"
        },
        {
          "internalType": "bytes",
          "name": "_config",
          "type": "bytes"
        }
      ],
      "name": "setConfig",
      "outputs": [],
      "stateMutability": "nonpayable",
      "type": "function"
    },
    {
      "inputs": [
        {
          "internalType": "uint16",
          "name": "_feeBp",
          "type": "uint16"
        }
      ],
      "name": "setDefaultFeeBp",
      "outputs": [],
      "stateMutability": "nonpayable",
      "type": "function"
    },
    {
      "inputs": [
        {
          "internalType": "uint256",
          "name": "_fee",
          "type": "uint256"
        }
      ],
      "name": "setFee",
      "outputs": [],
      "stateMutability": "nonpayable",
      "type": "function"
    },
    {
      "inputs": [
        {
          "internalType": "uint16",
          "name": "_dstChainId",
          "type": "uint16"
        },
        {
          "internalType": "bool",
          "name": "_enabled",
          "type": "bool"
        },
        {
          "internalType": "uint16",
          "name": "_feeBp",
          "type": "uint16"
        }
      ],
      "name": "setFeeBp",
      "outputs": [],
      "stateMutability": "nonpayable",
      "type": "function"
    },
    {
      "inputs": [
        {
          "internalType": "address",
          "name": "_feeOwner",
          "type": "address"
        }
      ],
      "name": "setFeeOwner",
      "outputs": [],
      "stateMutability": "nonpayable",
      "type": "function"
    },
    {
      "inputs": [
        {
          "internalType": "uint16",
          "name": "_dstChainId",
          "type": "uint16"
        },
        {
          "internalType": "uint16",
          "name": "_packetType",
          "type": "uint16"
        },
        {
          "internalType": "uint256",
          "name": "_minGas",
          "type": "uint256"
        }
      ],
      "name": "setMinDstGas",
      "outputs": [],
      "stateMutability": "nonpayable",
      "type": "function"
    },
    {
      "inputs": [
        {
          "internalType": "uint16",
          "name": "_dstChainId",
          "type": "uint16"
        },
        {
          "internalType": "uint256",
          "name": "_size",
          "type": "uint256"
        }
      ],
      "name": "setPayloadSizeLimit",
      "outputs": [],
      "stateMutability": "nonpayable",
      "type": "function"
    },
    {
      "inputs": [
        {
          "internalType": "address",
          "name": "_precrime",
          "type": "address"
        }
      ],
      "name": "setPrecrime",
      "outputs": [],
      "stateMutability": "nonpayable",
      "type": "function"
    },
    {
      "inputs": [
        {
          "internalType": "uint16",
          "name": "_version",
          "type": "uint16"
        }
      ],
      "name": "setReceiveVersion",
      "outputs": [],
      "stateMutability": "nonpayable",
      "type": "function"
    },
    {
      "inputs": [
        {
          "internalType": "uint16",
          "name": "_version",
          "type": "uint16"
        }
      ],
      "name": "setSendVersion",
      "outputs": [],
      "stateMutability": "nonpayable",
      "type": "function"
    },
    {
      "inputs": [
        {
          "internalType": "uint16",
          "name": "_srcChainId",
          "type": "uint16"
        },
        {
          "internalType": "bytes",
          "name": "_path",
          "type": "bytes"
        }
      ],
      "name": "setTrustedRemote",
      "outputs": [],
      "stateMutability": "nonpayable",
      "type": "function"
    },
    {
      "inputs": [
        {
          "internalType": "uint16",
          "name": "_remoteChainId",
          "type": "uint16"
        },
        {
          "internalType": "bytes",
          "name": "_remoteAddress",
          "type": "bytes"
        }
      ],
      "name": "setTrustedRemoteAddress",
      "outputs": [],
      "stateMutability": "nonpayable",
      "type": "function"
    },
    {
      "inputs": [
        {
          "internalType": "bool",
          "name": "_useCustomAdapterParams",
          "type": "bool"
        }
      ],
      "name": "setUseCustomAdapterParams",
      "outputs": [],
      "stateMutability": "nonpayable",
      "type": "function"
    },
    {
      "inputs": [],
      "name": "sharedDecimals",
      "outputs": [
        {
          "internalType": "uint8",
          "name": "",
          "type": "uint8"
        }
      ],
      "stateMutability": "view",
      "type": "function"
    },
    {
      "inputs": [
        {
          "internalType": "bytes4",
          "name": "interfaceId",
          "type": "bytes4"
        }
      ],
      "name": "supportsInterface",
      "outputs": [
        {
          "internalType": "bool",
          "name": "",
          "type": "bool"
        }
      ],
      "stateMutability": "view",
      "type": "function"
    },
    {
      "inputs": [],
      "name": "symbol",
      "outputs": [
        {
          "internalType": "string",
          "name": "",
          "type": "string"
        }
      ],
      "stateMutability": "view",
      "type": "function"
    },
    {
      "inputs": [],
      "name": "token",
      "outputs": [
        {
          "internalType": "address",
          "name": "",
          "type": "address"
        }
      ],
      "stateMutability": "view",
      "type": "function"
    },
    {
      "inputs": [],
      "name": "totalSupply",
      "outputs": [
        {
          "internalType": "uint256",
          "name": "",
          "type": "uint256"
        }
      ],
      "stateMutability": "view",
      "type": "function"
    },
    {
      "inputs": [
        {
          "internalType": "address",
          "name": "to",
          "type": "address"
        },
        {
          "internalType": "uint256",
          "name": "amount",
          "type": "uint256"
        }
      ],
      "name": "transfer",
      "outputs": [
        {
          "internalType": "bool",
          "name": "",
          "type": "bool"
        }
      ],
      "stateMutability": "nonpayable",
      "type": "function"
    },
    {
      "inputs": [
        {
          "internalType": "address",
          "name": "from",
          "type": "address"
        },
        {
          "internalType": "address",
          "name": "to",
          "type": "address"
        },
        {
          "internalType": "uint256",
          "name": "amount",
          "type": "uint256"
        }
      ],
      "name": "transferFrom",
      "outputs": [
        {
          "internalType": "bool",
          "name": "",
          "type": "bool"
        }
      ],
      "stateMutability": "nonpayable",
      "type": "function"
    },
    {
      "inputs": [
        {
          "internalType": "address",
          "name": "newOwner",
          "type": "address"
        }
      ],
      "name": "transferOwnership",
      "outputs": [],
      "stateMutability": "nonpayable",
      "type": "function"
    },
    {
      "inputs": [
        {
          "internalType": "uint16",
          "name": "",
          "type": "uint16"
        }
      ],
      "name": "trustedRemoteLookup",
      "outputs": [
        {
          "internalType": "bytes",
          "name": "",
          "type": "bytes"
        }
      ],
      "stateMutability": "view",
      "type": "function"
    },
    {
      "inputs": [],
      "name": "useCustomAdapterParams",
      "outputs": [
        {
          "internalType": "bool",
          "name": "",
          "type": "bool"
        }
      ],
      "stateMutability": "view",
      "type": "function"
    },
    {
      "inputs": [],
      "name": "withdraw",
      "outputs": [],
      "stateMutability": "payable",
      "type": "function"
    }
  ],
  "transactionHash": "0x4e32a3c1bc24a9fe9d4a60838f4aed0b318b1e6b2d2462afb1054fc48b0c2415",
  "args": [
    "Alien",
    "A",
    "8",
    "0xbfD2135BFfbb0B5378b56643c2Df8a87552Bfa23"
  ],
  "numDeployments": 1,
  "solcInputHash": "8667deaa123107572c1540ab1f6bcb41",
  "bytecode": "0x60e0604052650246139ca800600f553480156200001b57600080fd5b5060405162005105380380620051058339810160408190526200003e916200034f565b838383838383838381818080620000553362000187565b6001600160a01b0316608052505060ff1660a0526200007c6000546001600160a01b031690565b600980546001600160a01b0392909216620100000262010000600160b01b031990921691909117905550508151620000bc90600d906020850190620001dc565b508051620000d290600e906020840190620001dc565b5050506000620000e7620001d760201b60201c565b90508060ff168360ff1611156200015b5760405162461bcd60e51b815260206004820152602e60248201527f4f4654576974684665653a20736861726564446563696d616c73206d7573742060448201526d6265203c3d20646563696d616c7360901b606482015260840160405180910390fd5b62000167838262000409565b6200017490600a6200052e565b60c0525062000583975050505050505050565b600080546001600160a01b038381166001600160a01b0319831681178455604051919092169283917f8be0079c531659141344cd1fd0a4f28419497f9722a3daafe3b4186f6b6457e09190a35050565b601290565b828054620001ea9062000546565b90600052602060002090601f0160209004810192826200020e576000855562000259565b82601f106200022957805160ff191683800117855562000259565b8280016001018555821562000259579182015b82811115620002595782518255916020019190600101906200023c565b50620002679291506200026b565b5090565b5b808211156200026757600081556001016200026c565b634e487b7160e01b600052604160045260246000fd5b600082601f830112620002aa57600080fd5b81516001600160401b0380821115620002c757620002c762000282565b604051601f8301601f19908116603f01168101908282118183101715620002f257620002f262000282565b816040528381526020925086838588010111156200030f57600080fd5b600091505b8382101562000333578582018301518183018401529082019062000314565b83821115620003455760008385830101525b9695505050505050565b600080600080608085870312156200036657600080fd5b84516001600160401b03808211156200037e57600080fd5b6200038c8883890162000298565b95506020870151915080821115620003a357600080fd5b50620003b28782880162000298565b935050604085015160ff81168114620003ca57600080fd5b60608601519092506001600160a01b0381168114620003e857600080fd5b939692955090935050565b634e487b7160e01b600052601160045260246000fd5b600060ff821660ff841680821015620004265762000426620003f3565b90039392505050565b600181815b8085111562000470578160001904821115620004545762000454620003f3565b808516156200046257918102915b93841c939080029062000434565b509250929050565b600082620004895750600162000528565b81620004985750600062000528565b8160018114620004b15760028114620004bc57620004dc565b600191505062000528565b60ff841115620004d057620004d0620003f3565b50506001821b62000528565b5060208310610133831016604e8410600b841016171562000501575081810a62000528565b6200050d83836200042f565b8060001904821115620005245762000524620003f3565b0290505b92915050565b60006200053f60ff84168362000478565b9392505050565b600181811c908216806200055b57607f821691505b602082108114156200057d57634e487b7160e01b600052602260045260246000fd5b50919050565b60805160a05160c051614b056200060060003960008181612ea501528181612f170152613783015260006107af01526000818161099f01528181610c1901528181610f3101528181610ff10152818161132401528181611b2f01528181612188015281816127bd01528181612c1701526130bf0152614b056000f3fe6080604052600436106103b75760003560e01c80638cfd8f5c116101f2578063c83330ce1161010d578063eab45d9c116100a0578063ed629c5c1161006f578063ed629c5c14610ba9578063f2fde38b14610bc3578063f5ecbdbc14610be3578063fc0c546a14610c0357600080fd5b8063eab45d9c14610b29578063eaffd49a14610b49578063eb8d72b714610b69578063ecd8f21214610b8957600080fd5b8063dd62ed3e116100dc578063dd62ed3e14610abe578063ddca3f4314610ade578063df2a5b3b14610af4578063e6a20ae614610b1457600080fd5b8063c83330ce14610a07578063cbed8b9c14610a5d578063d1deba1f14610a7d578063d888296814610a9057600080fd5b8063a4c51df511610185578063b353aaa711610154578063b353aaa71461098d578063b9818be1146109c1578063baf3292d146109e7578063c44618341461097757600080fd5b8063a4c51df514610917578063a6c3d16514610937578063a9059cbb14610957578063abe685cd1461097757600080fd5b806395d89b41116101c157806395d89b41146108705780639bdb9812146108855780639f38369a146108d7578063a457c2d7146108f757600080fd5b80638cfd8f5c146107d15780638da5cb5b146108095780639358928b1461083b578063950c8a741461085057600080fd5b80633f1f4fa4116102e25780635b8c41e611610275578063715018a611610244578063715018a6146107485780637533d7881461075d57806379c0ad4b1461077d578063857749b01461079d57600080fd5b80635b8c41e61461068357806366ad5c8a146106d257806369fe0e2d146106f257806370a082311461071257600080fd5b8063455ba27d116102b1578063455ba27d1461061b5780634b104eff1461062e5780634c42899a1461064e5780635a359dc51461066357600080fd5b80633f1f4fa4146105a657806340c10f19146105d357806342d65a8d146105e6578063447705151461060657600080fd5b806318160ddd1161035a578063365260b411610329578063365260b414610529578063395093511461055e5780633ccfd60b1461057e5780633d8b38f61461058657600080fd5b806318160ddd146104b557806323b872dd146104d45780632cdf0b95146104f4578063313ce5671461050757600080fd5b806307e0db171161039657806307e0db1714610435578063095ea7b3146104555780630df374831461047557806310ddb1371461049557600080fd5b80621d3567146103bc57806301ffc9a7146103de57806306fdde0314610413575b600080fd5b3480156103c857600080fd5b506103dc6103d7366004613b73565b610c16565b005b3480156103ea57600080fd5b506103fe6103f9366004613c06565b610e47565b60405190151581526020015b60405180910390f35b34801561041f57600080fd5b50610428610e7e565b60405161040a9190613c88565b34801561044157600080fd5b506103dc610450366004613c9b565b610f10565b34801561046157600080fd5b506103fe610470366004613ccb565b610f99565b34801561048157600080fd5b506103dc610490366004613cf7565b610fb1565b3480156104a157600080fd5b506103dc6104b0366004613c9b565b610fd0565b3480156104c157600080fd5b50600c545b60405190815260200161040a565b3480156104e057600080fd5b506103fe6104ef366004613d13565b611028565b6103dc610502366004613d6c565b61104c565b34801561051357600080fd5b5060125b60405160ff909116815260200161040a565b34801561053557600080fd5b50610549610544366004613df7565b6110ef565b6040805192835260208301919091520161040a565b34801561056a57600080fd5b506103fe610579366004613ccb565b611144565b6103dc611166565b34801561059257600080fd5b506103fe6105a1366004613e5c565b6111c6565b3480156105b257600080fd5b506104c66105c1366004613c9b565b60036020526000908152604090205481565b6103dc6105e1366004613ccb565b611292565b3480156105f257600080fd5b506103dc610601366004613e5c565b611305565b34801561061257600080fd5b506104c6600081565b6103dc610629366004613eae565b61138b565b34801561063a57600080fd5b506103dc610649366004613f6a565b61146c565b34801561065a57600080fd5b50610517600081565b34801561066f57600080fd5b506103dc61067e366004613c9b565b611529565b34801561068f57600080fd5b506104c661069e366004613ff4565b6005602090815260009384526040808520845180860184018051928152908401958401959095209452929052825290205481565b3480156106de57600080fd5b506103dc6106ed366004613b73565b61159b565b3480156106fe57600080fd5b506103dc61070d366004614094565b61166f565b34801561071e57600080fd5b506104c661072d366004613f6a565b6001600160a01b03166000908152600a602052604090205490565b34801561075457600080fd5b506103dc61167c565b34801561076957600080fd5b50610428610778366004613c9b565b611690565b34801561078957600080fd5b506103dc6107983660046140ad565b61172a565b3480156107a957600080fd5b506105177f000000000000000000000000000000000000000000000000000000000000000081565b3480156107dd57600080fd5b506104c66107ec3660046140e7565b600260209081526000928352604080842090915290825290205481565b34801561081557600080fd5b506000546001600160a01b03165b6040516001600160a01b03909116815260200161040a565b34801561084757600080fd5b506104c66117e6565b34801561085c57600080fd5b50600454610823906001600160a01b031681565b34801561087c57600080fd5b506104286117f6565b34801561089157600080fd5b506103fe6108a0366004613ff4565b6007602090815260009384526040808520845180860184018051928152908401958401959095209452929052825290205460ff1681565b3480156108e357600080fd5b506104286108f2366004613c9b565b611805565b34801561090357600080fd5b506103fe610912366004613ccb565b61191c565b34801561092357600080fd5b5061054961093236600461411a565b611997565b34801561094357600080fd5b506103dc610952366004613e5c565b611a26565b34801561096357600080fd5b506103fe610972366004613ccb565b611aac565b34801561098357600080fd5b506104c661271081565b34801561099957600080fd5b506108237f000000000000000000000000000000000000000000000000000000000000000081565b3480156109cd57600080fd5b50600954610823906201000090046001600160a01b031681565b3480156109f357600080fd5b506103dc610a02366004613f6a565b611aba565b348015610a1357600080fd5b50610a43610a22366004613c9b565b60086020526000908152604090205461ffff81169062010000900460ff1682565b6040805161ffff909316835290151560208301520161040a565b348015610a6957600080fd5b506103dc610a783660046141d3565b611b10565b6103dc610a8b366004613b73565b611b9a565b348015610a9c57600080fd5b50600954610aab9061ffff1681565b60405161ffff909116815260200161040a565b348015610aca57600080fd5b506104c6610ad9366004614241565b611db0565b348015610aea57600080fd5b506104c6600f5481565b348015610b0057600080fd5b506103dc610b0f36600461427a565b611ddb565b348015610b2057600080fd5b50610517600181565b348015610b3557600080fd5b506103dc610b443660046142b6565b611e8d565b348015610b5557600080fd5b506103dc610b643660046142d1565b611ed6565b348015610b7557600080fd5b506103dc610b84366004613e5c565b611ff5565b348015610b9557600080fd5b506104c6610ba4366004613cf7565b61204f565b348015610bb557600080fd5b506006546103fe9060ff1681565b348015610bcf57600080fd5b506103dc610bde366004613f6a565b6120e1565b348015610bef57600080fd5b50610428610bfe366004614399565b612157565b348015610c0f57600080fd5b5030610823565b337f00000000000000000000000000000000000000000000000000000000000000006001600160a01b031614610c935760405162461bcd60e51b815260206004820152601e60248201527f4c7a4170703a20696e76616c696420656e64706f696e742063616c6c6572000060448201526064015b60405180910390fd5b61ffff861660009081526001602052604081208054610cb1906143e6565b80601f0160208091040260200160405190810160405280929190818152602001828054610cdd906143e6565b8015610d2a5780601f10610cff57610100808354040283529160200191610d2a565b820191906000526020600020905b815481529060010190602001808311610d0d57829003601f168201915b50505050509050805186869050148015610d45575060008151115b8015610d6d575080516020820120604051610d63908890889061441b565b6040518091039020145b610dc85760405162461bcd60e51b815260206004820152602660248201527f4c7a4170703a20696e76616c696420736f757263652073656e64696e6720636f6044820152651b9d1c9858dd60d21b6064820152608401610c8a565b610e3e8787878080601f01602080910402602001604051908101604052809392919081815260200183838082843760009201919091525050604080516020601f8a018190048102820181019092528881528a93509150889088908190840183828082843760009201919091525061220892505050565b50505050505050565b60006001600160e01b03198216630d30953d60e31b1480610e7857506301ffc9a760e01b6001600160e01b03198316145b92915050565b6060600d8054610e8d906143e6565b80601f0160208091040260200160405190810160405280929190818152602001828054610eb9906143e6565b8015610f065780601f10610edb57610100808354040283529160200191610f06565b820191906000526020600020905b815481529060010190602001808311610ee957829003601f168201915b5050505050905090565b610f18612281565b6040516307e0db1760e01b815261ffff821660048201527f00000000000000000000000000000000000000000000000000000000000000006001600160a01b0316906307e0db17906024015b600060405180830381600087803b158015610f7e57600080fd5b505af1158015610f92573d6000803e3d6000fd5b5050505050565b600033610fa78185856122db565b5060019392505050565b610fb9612281565b61ffff909116600090815260036020526040902055565b610fd8612281565b6040516310ddb13760e01b815261ffff821660048201527f00000000000000000000000000000000000000000000000000000000000000006001600160a01b0316906310ddb13790602401610f64565b6000336110368582856123ff565b611041858585612479565b506001949350505050565b611057868685612624565b5092506110c58686868661106e6020870187613f6a565b61107e6040880160208901613f6a565b61108b604089018961442b565b8080601f01602080910402602001604051908101604052809392919081815260200183838082843760009201919091525061266d92505050565b9250818310156110e75760405162461bcd60e51b8152600401610c8a90614471565b505050505050565b6000806111358888888888888080601f01602080910402602001604051908101604052809392919081815260200183838082843760009201919091525061279192505050565b91509150965096945050505050565b600033610fa78185856111578383611db0565b61116191906144d4565b6122db565b61116e612281565b604051600090339047908381818185875af1925050503d80600081146111b0576040519150601f19603f3d011682016040523d82523d6000602084013e6111b5565b606091505b50509050806111c357600080fd5b50565b61ffff8316600090815260016020526040812080548291906111e7906143e6565b80601f0160208091040260200160405190810160405280929190818152602001828054611213906143e6565b80156112605780601f1061123557610100808354040283529160200191611260565b820191906000526020600020905b81548152906001019060200180831161124357829003601f168201915b50505050509050838360405161127792919061441b565b60405180910390208180519060200120149150509392505050565b34600f54826112a191906144ec565b11156112e25760405162461bcd60e51b815260206004820152601060248201526f2737ba1032b737bab3b41032ba3432b960811b6044820152606401610c8a565b611301826112f26012600a6145ef565b6112fc90846144ec565b612849565b5050565b61130d612281565b6040516342d65a8d60e01b81526001600160a01b037f000000000000000000000000000000000000000000000000000000000000000016906342d65a8d9061135d90869086908690600401614627565b600060405180830381600087803b15801561137757600080fd5b505af1158015610e3e573d6000803e3d6000fd5b611396898988612624565b508096505061143f8989898988888080601f0160208091040260200160405190810160405280939291908181526020018383808284376000920191909152508a92506113e89150506020890189613f6a565b6113f860408a0160208b01613f6a565b61140560408b018b61442b565b8080601f01602080910402602001604051908101604052809392919081815260200183838082843760009201919091525061290a92505050565b9550848610156114615760405162461bcd60e51b8152600401610c8a90614471565b505050505050505050565b611474612281565b6001600160a01b0381166114ca5760405162461bcd60e51b815260206004820152601a60248201527f4665653a206665654f776e65722063616e6e6f742062652030780000000000006044820152606401610c8a565b6009805462010000600160b01b031916620100006001600160a01b038416908102919091179091556040519081527f047912631afa564eebd3db2efe191a0dec62da1fede6bbbc1ffc89d87845b1b5906020015b60405180910390a150565b611531612281565b6127108161ffff1611156115575760405162461bcd60e51b8152600401610c8a90614645565b6009805461ffff191661ffff83169081179091556040519081527fd26030ef4a8c225ee12b646eb4466acb41fb96b6cd4660b22d0ba0124e7bdc749060200161151e565b3330146115f95760405162461bcd60e51b815260206004820152602660248201527f4e6f6e626c6f636b696e674c7a4170703a2063616c6c6572206d7573742062656044820152650204c7a4170760d41b6064820152608401610c8a565b6110e78686868080601f01602080910402602001604051908101604052809392919081815260200183838082843760009201919091525050604080516020601f890181900481028201810190925287815289935091508790879081908401838280828437600092019190915250612a0692505050565b611677612281565b600f55565b611684612281565b61168e6000612a8d565b565b600160205260009081526040902080546116a9906143e6565b80601f01602080910402602001604051908101604052809291908181526020018280546116d5906143e6565b80156117225780601f106116f757610100808354040283529160200191611722565b820191906000526020600020905b81548152906001019060200180831161170557829003601f168201915b505050505081565b611732612281565b6127108161ffff1611156117585760405162461bcd60e51b8152600401610c8a90614645565b60408051808201825261ffff83811680835285151560208085018281528985166000818152600884528890209651875492511515620100000262ffffff1990931696169590951717909455845192835292820192909252918201527fdd9c9685af3e6dcb56d8f4b88d2595d4add6837a150034e7781c46b6dcf8aaab906060015b60405180910390a1505050565b60006117f1600c5490565b905090565b6060600e8054610e8d906143e6565b61ffff8116600090815260016020526040812080546060929190611828906143e6565b80601f0160208091040260200160405190810160405280929190818152602001828054611854906143e6565b80156118a15780601f10611876576101008083540402835291602001916118a1565b820191906000526020600020905b81548152906001019060200180831161188457829003601f168201915b505050505090508051600014156118fa5760405162461bcd60e51b815260206004820152601d60248201527f4c7a4170703a206e6f20747275737465642070617468207265636f72640000006044820152606401610c8a565b61191560006014835161190d919061468a565b839190612add565b9392505050565b6000338161192a8286611db0565b90508381101561198a5760405162461bcd60e51b815260206004820152602560248201527f45524332303a2064656372656173656420616c6c6f77616e63652062656c6f77604482015264207a65726f60d81b6064820152608401610c8a565b61104182868684036122db565b600080611a148b8b8b8b8b8080601f01602080910402602001604051908101604052809392919081815260200183838082843760009201919091525050604080516020601f8d018190048102820181019092528b81528e93508d9250908c908c9081908401838280828437600092019190915250612bea92505050565b91509150995099975050505050505050565b611a2e612281565b818130604051602001611a43939291906146a1565b60408051601f1981840301815291815261ffff85166000908152600160209081529190208251611a78939192909101906139f0565b507f8c0400cfe2d1199b1a725c78960bcc2a344d869b80590d0f2bd005db15a572ce8383836040516117d993929190614627565b600033610fa7818585612479565b611ac2612281565b600480546001600160a01b0319166001600160a01b0383169081179091556040519081527f5db758e995a17ec1ad84bdef7e8c3293a0bd6179bcce400dff5d4c3d87db726b9060200161151e565b611b18612281565b6040516332fb62e760e21b81526001600160a01b037f0000000000000000000000000000000000000000000000000000000000000000169063cbed8b9c90611b6c90889088908890889088906004016146c7565b600060405180830381600087803b158015611b8657600080fd5b505af1158015611461573d6000803e3d6000fd5b61ffff86166000908152600560205260408082209051611bbd908890889061441b565b90815260408051602092819003830190206001600160401b03871660009081529252902054905080611c3d5760405162461bcd60e51b815260206004820152602360248201527f4e6f6e626c6f636b696e674c7a4170703a206e6f2073746f726564206d65737360448201526261676560e81b6064820152608401610c8a565b808383604051611c4e92919061441b565b604051809103902014611cad5760405162461bcd60e51b815260206004820152602160248201527f4e6f6e626c6f636b696e674c7a4170703a20696e76616c6964207061796c6f616044820152601960fa1b6064820152608401610c8a565b61ffff87166000908152600560205260408082209051611cd0908990899061441b565b90815260408051602092819003830181206001600160401b038916600090815290845282902093909355601f88018290048202830182019052868252611d68918991899089908190840183828082843760009201919091525050604080516020601f8a018190048102820181019092528881528a935091508890889081908401838280828437600092019190915250612a0692505050565b7fc264d91f3adc5588250e1551f547752ca0cfa8f6b530d243b9f9f4cab10ea8e58787878785604051611d9f959493929190614700565b60405180910390a150505050505050565b6001600160a01b039182166000908152600b6020908152604080832093909416825291909152205490565b611de3612281565b60008111611e2b5760405162461bcd60e51b81526020600482015260156024820152744c7a4170703a20696e76616c6964206d696e47617360581b6044820152606401610c8a565b61ffff83811660008181526002602090815260408083209487168084529482529182902085905581519283528201929092529081018290527f9d5c7c0b934da8fefa9c7760c98383778a12dfbfc0c3b3106518f43fb9508ac0906060016117d9565b611e95612281565b6006805460ff19168215159081179091556040519081527f1584ad594a70cbe1e6515592e1272a987d922b097ead875069cebe8b40c004a49060200161151e565b333014611f255760405162461bcd60e51b815260206004820152601f60248201527f4f4654436f72653a2063616c6c6572206d757374206265204f4654436f7265006044820152606401610c8a565b611f30308686612ca5565b9350846001600160a01b03168a61ffff167fbf551ec93859b170f9b2141bd9298bf3f64322c6f7beb2543a0cb669834118bf86604051611f7291815260200190565b60405180910390a3604051633fe79aed60e11b81526001600160a01b03861690637fcf35da908390611fb6908e908e908e908e908e908d908d908d9060040161473b565b600060405180830381600088803b158015611fd057600080fd5b5087f1158015611fe4573d6000803e3d6000fd5b505050505050505050505050505050565b611ffd612281565b61ffff8316600090815260016020526040902061201b908383613a74565b507ffa41487ad5d6728f0b19276fa1eddc16558578f5109fc39d2dc33c3230470dab8383836040516117d993929190614627565b61ffff828116600090815260086020908152604080832081518083019092525493841681526201000090930460ff16158015918401919091529091906120b4578051612710906120a39061ffff16856144ec565b6120ad91906147ac565b91506120da565b60095461ffff16156120d557600954612710906120a39061ffff16856144ec565b600091505b5092915050565b6120e9612281565b6001600160a01b03811661214e5760405162461bcd60e51b815260206004820152602660248201527f4f776e61626c653a206e6577206f776e657220697320746865207a65726f206160448201526564647265737360d01b6064820152608401610c8a565b6111c381612a8d565b604051633d7b2f6f60e21b815261ffff808616600483015284166024820152306044820152606481018290526060907f00000000000000000000000000000000000000000000000000000000000000006001600160a01b03169063f5ecbdbc90608401600060405180830381865afa1580156121d7573d6000803e3d6000fd5b505050506040513d6000823e601f3d908101601f191682016040526121ff91908101906147c0565b95945050505050565b60008061226b5a60966366ad5c8a60e01b89898989604051602401612230949392919061482d565b60408051601f198184030181529190526020810180516001600160e01b03166001600160e01b03199093169290921790915230929190612cf7565b91509150816110e7576110e78686868685612d81565b6000546001600160a01b0316331461168e5760405162461bcd60e51b815260206004820181905260248201527f4f776e61626c653a2063616c6c6572206973206e6f7420746865206f776e65726044820152606401610c8a565b6001600160a01b03831661233d5760405162461bcd60e51b8152602060048201526024808201527f45524332303a20617070726f76652066726f6d20746865207a65726f206164646044820152637265737360e01b6064820152608401610c8a565b6001600160a01b03821661239e5760405162461bcd60e51b815260206004820152602260248201527f45524332303a20617070726f766520746f20746865207a65726f206164647265604482015261737360f01b6064820152608401610c8a565b6001600160a01b038381166000818152600b602090815260408083209487168084529482529182902085905590518481527f8c5be1e5ebec7d5bd14f71427d1e84f3dd0314c0f7b2291e5b200ac8c7c3b925910160405180910390a3505050565b600061240b8484611db0565b9050600019811461247357818110156124665760405162461bcd60e51b815260206004820152601d60248201527f45524332303a20696e73756666696369656e7420616c6c6f77616e63650000006044820152606401610c8a565b61247384848484036122db565b50505050565b6001600160a01b0383166124dd5760405162461bcd60e51b815260206004820152602560248201527f45524332303a207472616e736665722066726f6d20746865207a65726f206164604482015264647265737360d81b6064820152608401610c8a565b6001600160a01b03821661253f5760405162461bcd60e51b815260206004820152602360248201527f45524332303a207472616e7366657220746f20746865207a65726f206164647260448201526265737360e81b6064820152608401610c8a565b6001600160a01b0383166000908152600a6020526040902054818110156125b75760405162461bcd60e51b815260206004820152602660248201527f45524332303a207472616e7366657220616d6f756e7420657863656564732062604482015265616c616e636560d01b6064820152608401610c8a565b6001600160a01b038085166000818152600a602052604080822086860390559286168082529083902080548601905591517fddf252ad1be2c89b69c2b068fc378daa952ba7f163c4a11628f55a4df523b3ef906126179086815260200190565b60405180910390a3612473565b600080612631848461204f565b905061263d818461468a565b91508015612665576009546126639086906201000090046001600160a01b031683612ca5565b505b935093915050565b600061267b87828481612e23565b61268485612e9d565b50905061269388888884612edd565b9050600081116126e15760405162461bcd60e51b815260206004820152601960248201527813d19510dbdc994e88185b5bdd5b9d081d1bdbc81cdb585b1b603a1b6044820152606401610c8a565b600061272c876126f084612f0f565b6040805160006020820152602181019390935260c09190911b6001600160c01b0319166041830152805160298184030181526049909201905290565b905061273c888287878734612f95565b86896001600160a01b03168961ffff167fd81fc9b8523134ed613870ed029d6170cbb73aa6a6bc311b9a642689fb9df59a8560405161277d91815260200190565b60405180910390a450979650505050505050565b60008060006127a3876126f088612f0f565b60405163040a7bb160e41b81529091506001600160a01b037f000000000000000000000000000000000000000000000000000000000000000016906340a7bb10906127fa908b90309086908b908b9060040161486b565b6040805180830381865afa158015612816573d6000803e3d6000fd5b505050506040513d601f19601f8201168201806040525081019061283a91906148bf565b92509250509550959350505050565b6001600160a01b03821661289f5760405162461bcd60e51b815260206004820152601f60248201527f45524332303a206d696e7420746f20746865207a65726f2061646472657373006044820152606401610c8a565b80600c60008282546128b191906144d4565b90915550506001600160a01b0382166000818152600a60209081526040808320805486019055518481527fddf252ad1be2c89b69c2b068fc378daa952ba7f163c4a11628f55a4df523b3ef910160405180910390a35050565b6000612922896001846001600160401b038916612e23565b61292b87612e9d565b50905061293a8a8a8a84612edd565b9050600081116129885760405162461bcd60e51b815260206004820152601960248201527813d19510dbdc994e88185b5bdd5b9d081d1bdbc81cdb585b1b603a1b6044820152606401610c8a565b600061299f338a61299885612f0f565b8a8a61313b565b90506129af8a8287878734612f95565b888b6001600160a01b03168b61ffff167fd81fc9b8523134ed613870ed029d6170cbb73aa6a6bc311b9a642689fb9df59a856040516129f091815260200190565b60405180910390a4509998505050505050505050565b6000612a12828261317c565b905060ff8116612a2d57612a28858585856131d8565b610f92565b60ff811660011415612a4557612a2885858585613268565b60405162461bcd60e51b815260206004820152601c60248201527f4f4654436f72653a20756e6b6e6f776e207061636b65742074797065000000006044820152606401610c8a565b600080546001600160a01b038381166001600160a01b0319831681178455604051919092169283917f8be0079c531659141344cd1fd0a4f28419497f9722a3daafe3b4186f6b6457e09190a35050565b606081612aeb81601f6144d4565b1015612b2a5760405162461bcd60e51b815260206004820152600e60248201526d736c6963655f6f766572666c6f7760901b6044820152606401610c8a565b612b3482846144d4565b84511015612b785760405162461bcd60e51b8152602060048201526011602482015270736c6963655f6f75744f66426f756e647360781b6044820152606401610c8a565b606082158015612b975760405191506000825260208201604052612be1565b6040519150601f8416801560200281840101858101878315602002848b0101015b81831015612bd0578051835260209283019201612bb8565b5050858452601f01601f1916604052505b50949350505050565b6000806000612bfd338a6129988b612f0f565b60405163040a7bb160e41b81529091506001600160a01b037f000000000000000000000000000000000000000000000000000000000000000016906340a7bb1090612c54908d90309086908b908b9060040161486b565b6040805180830381865afa158015612c70573d6000803e3d6000fd5b505050506040513d601f19601f82011682018060405250810190612c9491906148bf565b925092505097509795505050505050565b600033306001600160a01b03861614801590612cd35750806001600160a01b0316856001600160a01b031614155b15612ce357612ce38582856123ff565b612cee858585612479565b50909392505050565b6000606060008060008661ffff166001600160401b03811115612d1c57612d1c613f87565b6040519080825280601f01601f191660200182016040528015612d46576020820181803683370190505b50905060008087516020890160008d8df191503d925086831115612d68578692505b828152826000602083013e909890975095505050505050565b8180519060200120600560008761ffff1661ffff16815260200190815260200160002085604051612db291906148e3565b9081526040805191829003602090810183206001600160401b0388166000908152915220919091557fe183f33de2837795525b4792ca4cd60535bd77c53b7e7030060bfcf5734d6b0c90612e0f90879087908790879087906148ff565b60405180910390a15050505050565b505050565b60065460ff1615612e3f57612e3a84848484613476565b612473565b8151156124735760405162461bcd60e51b815260206004820152602660248201527f4f4654436f72653a205f61646170746572506172616d73206d7573742062652060448201526532b6b83a3c9760d11b6064820152608401610c8a565b600080612eca7f000000000000000000000000000000000000000000000000000000000000000084614951565b9050612ed6818461468a565b9150915091565b6000336001600160a01b0386168114612efb57612efb8682856123ff565b612f058684613555565b5090949350505050565b600080612f3c7f0000000000000000000000000000000000000000000000000000000000000000846147ac565b90506001600160401b03811115610e785760405162461bcd60e51b815260206004820152601a60248201527f4f4654436f72653a20616d6f756e745344206f766572666c6f770000000000006044820152606401610c8a565b61ffff861660009081526001602052604081208054612fb3906143e6565b80601f0160208091040260200160405190810160405280929190818152602001828054612fdf906143e6565b801561302c5780601f106130015761010080835404028352916020019161302c565b820191906000526020600020905b81548152906001019060200180831161300f57829003601f168201915b5050505050905080516000141561309e5760405162461bcd60e51b815260206004820152603060248201527f4c7a4170703a2064657374696e6174696f6e20636861696e206973206e6f742060448201526f61207472757374656420736f7572636560801b6064820152608401610c8a565b6130a9878751613689565b60405162c5803160e81b81526001600160a01b037f0000000000000000000000000000000000000000000000000000000000000000169063c5803100908490613100908b9086908c908c908c908c90600401614965565b6000604051808303818588803b15801561311957600080fd5b505af115801561312d573d6000803e3d6000fd5b505050505050505050505050565b6060600185856001600160a01b0389168587604051602001613162969594939291906149cc565b604051602081830303815290604052905095945050505050565b60006131898260016144d4565b835110156131cf5760405162461bcd60e51b8152602060048201526013602482015272746f55696e74385f6f75744f66426f756e647360681b6044820152606401610c8a565b50016001015190565b6000806131e4836136f7565b90925090506001600160a01b0382166131fd5761dead91505b60006132088261377c565b90506132158784836137b1565b9050826001600160a01b03168761ffff167fbf551ec93859b170f9b2141bd9298bf3f64322c6f7beb2543a0cb669834118bf8360405161325791815260200190565b60405180910390a350505050505050565b6000806000806000613279866137bd565b945094509450945094506000600760008b61ffff1661ffff168152602001908152602001600020896040516132ae91906148e3565b90815260408051602092819003830190206001600160401b038b166000908152925281205460ff1691506132e18561377c565b90508161334f576132f38b30836137b1565b61ffff8c1660009081526007602052604090819020905191925060019161331b908d906148e3565b90815260408051602092819003830190206001600160401b038d16600090815292529020805460ff19169115159190911790555b6001600160a01b0386163b6133a6576040516001600160a01b03871681527f9aedf5fdba8716db3b6705ca00150643309995d4f818a249ed6dde6677e7792d9060200160405180910390a150505050505050612473565b8a8a8a8a8a8a868a60008a6133c4578b6001600160401b03166133c6565b5a5b90506000806133f85a609663eaffd49a60e01b8e8e8e8d8d8d8d8d604051602401612230989796959493929190614a2d565b915091508115613451578751602089012060405161ffff8d16907fb8890edbfc1c74692f527444645f95489c3703cc2df42e4a366f5d06fa6cd88490613443908e908e908690614aa1565b60405180910390a25061345e565b61345e8b8b8b8b85612d81565b50505050505050505050505050505050505050505050565b600061348183613874565b61ffff8087166000908152600260209081526040808320938916835292905290812054919250906134b39084906144d4565b9050600081116135055760405162461bcd60e51b815260206004820152601a60248201527f4c7a4170703a206d696e4761734c696d6974206e6f74207365740000000000006044820152606401610c8a565b808210156110e75760405162461bcd60e51b815260206004820152601b60248201527f4c7a4170703a20676173206c696d697420697320746f6f206c6f7700000000006044820152606401610c8a565b6001600160a01b0382166135b55760405162461bcd60e51b815260206004820152602160248201527f45524332303a206275726e2066726f6d20746865207a65726f206164647265736044820152607360f81b6064820152608401610c8a565b6001600160a01b0382166000908152600a6020526040902054818110156136295760405162461bcd60e51b815260206004820152602260248201527f45524332303a206275726e20616d6f756e7420657863656564732062616c616e604482015261636560f01b6064820152608401610c8a565b6001600160a01b0383166000818152600a602090815260408083208686039055600c80548790039055518581529192917fddf252ad1be2c89b69c2b068fc378daa952ba7f163c4a11628f55a4df523b3ef910160405180910390a3505050565b61ffff8216600090815260036020526040902054806136a757506127105b80821115612e1e5760405162461bcd60e51b815260206004820181905260248201527f4c7a4170703a207061796c6f61642073697a6520697320746f6f206c617267656044820152606401610c8a565b60008080613705848261317c565b60ff16148015613716575082516029145b61375d5760405162461bcd60e51b815260206004820152601860248201527713d19510dbdc994e881a5b9d985b1a59081c185e5b1bd85960421b6044820152606401610c8a565b61376883600d6138d0565b9150613775836021613935565b9050915091565b6000610e787f00000000000000000000000000000000000000000000000000000000000000006001600160401b0384166144ec565b60006120da8383612849565b6000808060608160016137d0878361317c565b60ff161461381b5760405162461bcd60e51b815260206004820152601860248201527713d19510dbdc994e881a5b9d985b1a59081c185e5b1bd85960421b6044820152606401610c8a565b61382686600d6138d0565b9350613833866021613935565b9250613840866029613992565b945061384d866049613935565b90506138696051808851613861919061468a565b889190612add565b915091939590929450565b60006022825110156138c85760405162461bcd60e51b815260206004820152601c60248201527f4c7a4170703a20696e76616c69642061646170746572506172616d73000000006044820152606401610c8a565b506022015190565b60006138dd8260146144d4565b835110156139255760405162461bcd60e51b8152602060048201526015602482015274746f416464726573735f6f75744f66426f756e647360581b6044820152606401610c8a565b500160200151600160601b900490565b60006139428260086144d4565b835110156139895760405162461bcd60e51b8152602060048201526014602482015273746f55696e7436345f6f75744f66426f756e647360601b6044820152606401610c8a565b50016008015190565b600061399f8260206144d4565b835110156139e75760405162461bcd60e51b8152602060048201526015602482015274746f427974657333325f6f75744f66426f756e647360581b6044820152606401610c8a565b50016020015190565b8280546139fc906143e6565b90600052602060002090601f016020900481019282613a1e5760008555613a64565b82601f10613a3757805160ff1916838001178555613a64565b82800160010185558215613a64579182015b82811115613a64578251825591602001919060010190613a49565b50613a70929150613ae8565b5090565b828054613a80906143e6565b90600052602060002090601f016020900481019282613aa25760008555613a64565b82601f10613abb5782800160ff19823516178555613a64565b82800160010185558215613a64579182015b82811115613a64578235825591602001919060010190613acd565b5b80821115613a705760008155600101613ae9565b803561ffff81168114613b0f57600080fd5b919050565b60008083601f840112613b2657600080fd5b5081356001600160401b03811115613b3d57600080fd5b602083019150836020828501011115613b5557600080fd5b9250929050565b80356001600160401b0381168114613b0f57600080fd5b60008060008060008060808789031215613b8c57600080fd5b613b9587613afd565b955060208701356001600160401b0380821115613bb157600080fd5b613bbd8a838b01613b14565b9097509550859150613bd160408a01613b5c565b94506060890135915080821115613be757600080fd5b50613bf489828a01613b14565b979a9699509497509295939492505050565b600060208284031215613c1857600080fd5b81356001600160e01b03198116811461191557600080fd5b60005b83811015613c4b578181015183820152602001613c33565b838111156124735750506000910152565b60008151808452613c74816020860160208601613c30565b601f01601f19169290920160200192915050565b6020815260006119156020830184613c5c565b600060208284031215613cad57600080fd5b61191582613afd565b6001600160a01b03811681146111c357600080fd5b60008060408385031215613cde57600080fd5b8235613ce981613cb6565b946020939093013593505050565b60008060408385031215613d0a57600080fd5b613ce983613afd565b600080600060608486031215613d2857600080fd5b8335613d3381613cb6565b92506020840135613d4381613cb6565b929592945050506040919091013590565b600060608284031215613d6657600080fd5b50919050565b60008060008060008060c08789031215613d8557600080fd5b8635613d9081613cb6565b9550613d9e60208801613afd565b945060408701359350606087013592506080870135915060a08701356001600160401b03811115613dce57600080fd5b613dda89828a01613d54565b9150509295509295509295565b80358015158114613b0f57600080fd5b60008060008060008060a08789031215613e1057600080fd5b613e1987613afd565b95506020870135945060408701359350613e3560608801613de7565b925060808701356001600160401b03811115613e5057600080fd5b613bf489828a01613b14565b600080600060408486031215613e7157600080fd5b613e7a84613afd565b925060208401356001600160401b03811115613e9557600080fd5b613ea186828701613b14565b9497909650939450505050565b60008060008060008060008060006101008a8c031215613ecd57600080fd5b8935613ed881613cb6565b9850613ee660208b01613afd565b975060408a0135965060608a0135955060808a0135945060a08a01356001600160401b0380821115613f1757600080fd5b613f238d838e01613b14565b9096509450849150613f3760c08d01613b5c565b935060e08c0135915080821115613f4d57600080fd5b50613f5a8c828d01613d54565b9150509295985092959850929598565b600060208284031215613f7c57600080fd5b813561191581613cb6565b634e487b7160e01b600052604160045260246000fd5b604051601f8201601f191681016001600160401b0381118282101715613fc557613fc5613f87565b604052919050565b60006001600160401b03821115613fe657613fe6613f87565b50601f01601f191660200190565b60008060006060848603121561400957600080fd5b61401284613afd565b925060208401356001600160401b0381111561402d57600080fd5b8401601f8101861361403e57600080fd5b803561405161404c82613fcd565b613f9d565b81815287602083850101111561406657600080fd5b8160208401602083013760006020838301015280945050505061408b60408501613b5c565b90509250925092565b6000602082840312156140a657600080fd5b5035919050565b6000806000606084860312156140c257600080fd5b6140cb84613afd565b92506140d960208501613de7565b915061408b60408501613afd565b600080604083850312156140fa57600080fd5b61410383613afd565b915061411160208401613afd565b90509250929050565b600080600080600080600080600060e08a8c03121561413857600080fd5b6141418a613afd565b985060208a0135975060408a0135965060608a01356001600160401b038082111561416b57600080fd5b6141778d838e01613b14565b909850965086915061418b60808d01613b5c565b955061419960a08d01613de7565b945060c08c01359150808211156141af57600080fd5b506141bc8c828d01613b14565b915080935050809150509295985092959850929598565b6000806000806000608086880312156141eb57600080fd5b6141f486613afd565b945061420260208701613afd565b93506040860135925060608601356001600160401b0381111561422457600080fd5b61423088828901613b14565b969995985093965092949392505050565b6000806040838503121561425457600080fd5b823561425f81613cb6565b9150602083013561426f81613cb6565b809150509250929050565b60008060006060848603121561428f57600080fd5b61429884613afd565b92506142a660208501613afd565b9150604084013590509250925092565b6000602082840312156142c857600080fd5b61191582613de7565b6000806000806000806000806000806101008b8d0312156142f157600080fd5b6142fa8b613afd565b995060208b01356001600160401b038082111561431657600080fd5b6143228e838f01613b14565b909b50995089915061433660408e01613b5c565b985060608d0135975060808d0135915061434f82613cb6565b90955060a08c0135945060c08c0135908082111561436c57600080fd5b506143798d828e01613b14565b9150809450508092505060e08b013590509295989b9194979a5092959850565b600080600080608085870312156143af57600080fd5b6143b885613afd565b93506143c660208601613afd565b925060408501356143d681613cb6565b9396929550929360600135925050565b600181811c908216806143fa57607f821691505b60208210811415613d6657634e487b7160e01b600052602260045260246000fd5b8183823760009101908152919050565b6000808335601e1984360301811261444257600080fd5b8301803591506001600160401b0382111561445c57600080fd5b602001915036819003821315613b5557600080fd5b6020808252602d908201527f426173654f4654576974684665653a20616d6f756e74206973206c657373207460408201526c1a185b881b5a5b905b5bdd5b9d609a1b606082015260800190565b634e487b7160e01b600052601160045260246000fd5b600082198211156144e7576144e76144be565b500190565b6000816000190483118215151615614506576145066144be565b500290565b600181815b8085111561454657816000190482111561452c5761452c6144be565b8085161561453957918102915b93841c9390800290614510565b509250929050565b60008261455d57506001610e78565b8161456a57506000610e78565b8160018114614580576002811461458a576145a6565b6001915050610e78565b60ff84111561459b5761459b6144be565b50506001821b610e78565b5060208310610133831016604e8410600b84101617156145c9575081810a610e78565b6145d3838361450b565b80600019048211156145e7576145e76144be565b029392505050565b600061191560ff84168361454e565b81835281816020850137506000828201602090810191909152601f909101601f19169091010190565b61ffff841681526040602082015260006121ff6040830184866145fe565b60208082526025908201527f4665653a20666565206270206d757374206265203c3d2042505f44454e4f4d496040820152642720aa27a960d91b606082015260800190565b60008282101561469c5761469c6144be565b500390565b8284823760609190911b6bffffffffffffffffffffffff19169101908152601401919050565b600061ffff8088168352808716602084015250846040830152608060608301526146f56080830184866145fe565b979650505050505050565b61ffff8616815260806020820152600061471e6080830186886145fe565b6001600160401b0394909416604083015250606001529392505050565b61ffff8916815260c06020820152600061475960c08301898b6145fe565b6001600160401b038816604084015286606084015285608084015282810360a08401526147878185876145fe565b9b9a5050505050505050505050565b634e487b7160e01b600052601260045260246000fd5b6000826147bb576147bb614796565b500490565b6000602082840312156147d257600080fd5b81516001600160401b038111156147e857600080fd5b8201601f810184136147f957600080fd5b805161480761404c82613fcd565b81815285602083850101111561481c57600080fd5b6121ff826020830160208601613c30565b61ffff8516815260806020820152600061484a6080830186613c5c565b6001600160401b038516604084015282810360608401526146f58185613c5c565b61ffff861681526001600160a01b038516602082015260a06040820181905260009061489990830186613c5c565b841515606084015282810360808401526148b38185613c5c565b98975050505050505050565b600080604083850312156148d257600080fd5b505080516020909101519092909150565b600082516148f5818460208701613c30565b9190910192915050565b61ffff8616815260a06020820152600061491c60a0830187613c5c565b6001600160401b0386166040840152828103606084015261493d8186613c5c565b905082810360808401526148b38185613c5c565b60008261496057614960614796565b500690565b61ffff8716815260c06020820152600061498260c0830188613c5c565b82810360408401526149948188613c5c565b6001600160a01b0387811660608601528616608085015283810360a085015290506149bf8185613c5c565b9998505050505050505050565b60ff60f81b8760f81b16815285600182015260006001600160401b0360c01b808760c01b166021840152856029840152808560c01b166049840152508251614a1b816051850160208701613c30565b91909101605101979650505050505050565b600061010061ffff8b168352806020840152614a4b8184018b613c5c565b6001600160401b038a166040850152606084018990526001600160a01b038816608085015260a0840187905283810360c08501529050614a8b8186613c5c565b9150508260e08301529998505050505050505050565b606081526000614ab46060830186613c5c565b6001600160401b03949094166020830152506040015291905056fea26469706673582212206d4b55675436aca645a4c6f7c53fbbe382f4a0f295fc49194a0645074c3cda8f64736f6c634300080c0033",
  "devdoc": {
    "kind": "dev",
    "methods": {
      "allowance(address,address)": {
        "details": "See {IERC20-allowance}."
      },
      "approve(address,uint256)": {
        "details": "See {IERC20-approve}. NOTE: If `amount` is the maximum `uint256`, the allowance is not updated on `transferFrom`. This is semantically equivalent to an infinite approval. Requirements: - `spender` cannot be the zero address."
      },
      "balanceOf(address)": {
        "details": "See {IERC20-balanceOf}."
      },
      "circulatingSupply()": {
        "details": "returns the circulating amount of tokens on current chain"
      },
      "decimals()": {
        "details": "Returns the number of decimals used to get its user representation. For example, if `decimals` equals `2`, a balance of `505` tokens should be displayed to a user as `5.05` (`505 / 10 ** 2`). Tokens usually opt for a value of 18, imitating the relationship between Ether and Wei. This is the value {ERC20} uses, unless this function is overridden; NOTE: This information is only used for _display_ purposes: it in no way affects any of the arithmetic of the contract, including {IERC20-balanceOf} and {IERC20-transfer}."
      },
      "decreaseAllowance(address,uint256)": {
        "details": "Atomically decreases the allowance granted to `spender` by the caller. This is an alternative to {approve} that can be used as a mitigation for problems described in {IERC20-approve}. Emits an {Approval} event indicating the updated allowance. Requirements: - `spender` cannot be the zero address. - `spender` must have allowance for the caller of at least `subtractedValue`."
      },
      "estimateSendFee(uint16,bytes32,uint256,bool,bytes)": {
        "details": "estimate send token `_tokenId` to (`_dstChainId`, `_toAddress`) _dstChainId - L0 defined chain id to send tokens too _toAddress - dynamic bytes array which contains the address to whom you are sending tokens to on the dstChain _amount - amount of the tokens to transfer _useZro - indicates to use zro to pay L0 fees _adapterParam - flexible bytes array to indicate messaging adapter services in L0"
      },
      "increaseAllowance(address,uint256)": {
        "details": "Atomically increases the allowance granted to `spender` by the caller. This is an alternative to {approve} that can be used as a mitigation for problems described in {IERC20-approve}. Emits an {Approval} event indicating the updated allowance. Requirements: - `spender` cannot be the zero address."
      },
      "name()": {
        "details": "Returns the name of the token."
      },
      "owner()": {
        "details": "Returns the address of the current owner."
      },
      "renounceOwnership()": {
        "details": "Leaves the contract without owner. It will not be possible to call `onlyOwner` functions anymore. Can only be called by the current owner. NOTE: Renouncing ownership will leave the contract without an owner, thereby removing any functionality that is only available to the owner."
      },
      "sendFrom(address,uint16,bytes32,uint256,uint256,(address,address,bytes))": {
        "details": "send `_amount` amount of token to (`_dstChainId`, `_toAddress`) from `_from` `_from` the owner of token `_dstChainId` the destination chain identifier `_toAddress` can be any size depending on the `dstChainId`. `_amount` the quantity of tokens in wei `_minAmount` the minimum amount of tokens to receive on dstChain `_refundAddress` the address LayerZero refunds if too much message fee is sent `_zroPaymentAddress` set to address(0x0) if not paying in ZRO (LayerZero Token) `_adapterParams` is a flexible bytes array to indicate messaging adapter services"
      },
      "symbol()": {
        "details": "Returns the symbol of the token, usually a shorter version of the name."
      },
      "token()": {
        "details": "returns the address of the ERC20 token"
      },
      "totalSupply()": {
        "details": "See {IERC20-totalSupply}."
      },
      "transfer(address,uint256)": {
        "details": "See {IERC20-transfer}. Requirements: - `to` cannot be the zero address. - the caller must have a balance of at least `amount`."
      },
      "transferFrom(address,address,uint256)": {
        "details": "See {IERC20-transferFrom}. Emits an {Approval} event indicating the updated allowance. This is not required by the EIP. See the note at the beginning of {ERC20}. NOTE: Does not update the allowance if the current allowance is the maximum `uint256`. Requirements: - `from` and `to` cannot be the zero address. - `from` must have a balance of at least `amount`. - the caller must have allowance for ``from``'s tokens of at least `amount`."
      },
      "transferOwnership(address)": {
        "details": "Transfers ownership of the contract to a new account (`newOwner`). Can only be called by the current owner."
      }
    },
    "version": 1
  },
  "userdoc": {
    "kind": "user",
    "methods": {},
    "version": 1
  },
  "storageLayout": {
    "storage": [
      {
        "astId": 3204,
        "contract": "contracts/oftv2/Alien.sol:Alien",
        "label": "_owner",
        "offset": 0,
        "slot": "0",
        "type": "t_address"
      },
      {
        "astId": 215,
        "contract": "contracts/oftv2/Alien.sol:Alien",
        "label": "trustedRemoteLookup",
        "offset": 0,
        "slot": "1",
        "type": "t_mapping(t_uint16,t_bytes_storage)"
      },
      {
        "astId": 221,
        "contract": "contracts/oftv2/Alien.sol:Alien",
        "label": "minDstGasLookup",
        "offset": 0,
        "slot": "2",
        "type": "t_mapping(t_uint16,t_mapping(t_uint16,t_uint256))"
      },
      {
        "astId": 225,
        "contract": "contracts/oftv2/Alien.sol:Alien",
        "label": "payloadSizeLimitLookup",
        "offset": 0,
        "slot": "3",
        "type": "t_mapping(t_uint16,t_uint256)"
      },
      {
        "astId": 227,
        "contract": "contracts/oftv2/Alien.sol:Alien",
        "label": "precrime",
        "offset": 0,
        "slot": "4",
        "type": "t_address"
      },
      {
        "astId": 764,
        "contract": "contracts/oftv2/Alien.sol:Alien",
        "label": "failedMessages",
        "offset": 0,
        "slot": "5",
        "type": "t_mapping(t_uint16,t_mapping(t_bytes_memory_ptr,t_mapping(t_uint64,t_bytes32)))"
      },
      {
        "astId": 1090,
        "contract": "contracts/oftv2/Alien.sol:Alien",
        "label": "useCustomAdapterParams",
        "offset": 0,
        "slot": "6",
        "type": "t_bool"
      },
      {
        "astId": 1098,
        "contract": "contracts/oftv2/Alien.sol:Alien",
        "label": "creditedPackets",
        "offset": 0,
        "slot": "7",
        "type": "t_mapping(t_uint16,t_mapping(t_bytes_memory_ptr,t_mapping(t_uint64,t_bool)))"
      },
      {
        "astId": 2324,
        "contract": "contracts/oftv2/Alien.sol:Alien",
        "label": "chainIdToFeeBps",
        "offset": 0,
        "slot": "8",
        "type": "t_mapping(t_uint16,t_struct(FeeConfig)2333_storage)"
      },
      {
        "astId": 2326,
        "contract": "contracts/oftv2/Alien.sol:Alien",
        "label": "defaultFeeBp",
        "offset": 0,
        "slot": "9",
        "type": "t_uint16"
      },
      {
        "astId": 2328,
        "contract": "contracts/oftv2/Alien.sol:Alien",
        "label": "feeOwner",
        "offset": 2,
        "slot": "9",
        "type": "t_address"
      },
      {
        "astId": 3325,
        "contract": "contracts/oftv2/Alien.sol:Alien",
        "label": "_balances",
        "offset": 0,
        "slot": "10",
        "type": "t_mapping(t_address,t_uint256)"
      },
      {
        "astId": 3331,
        "contract": "contracts/oftv2/Alien.sol:Alien",
        "label": "_allowances",
        "offset": 0,
        "slot": "11",
        "type": "t_mapping(t_address,t_mapping(t_address,t_uint256))"
      },
      {
        "astId": 3333,
        "contract": "contracts/oftv2/Alien.sol:Alien",
        "label": "_totalSupply",
        "offset": 0,
        "slot": "12",
        "type": "t_uint256"
      },
      {
        "astId": 3335,
        "contract": "contracts/oftv2/Alien.sol:Alien",
        "label": "_name",
        "offset": 0,
        "slot": "13",
        "type": "t_string_storage"
      },
      {
        "astId": 3337,
        "contract": "contracts/oftv2/Alien.sol:Alien",
        "label": "_symbol",
        "offset": 0,
        "slot": "14",
        "type": "t_string_storage"
      },
      {
        "astId": 4065,
        "contract": "contracts/oftv2/Alien.sol:Alien",
        "label": "fee",
        "offset": 0,
        "slot": "15",
        "type": "t_uint256"
      }
    ],
    "types": {
      "t_address": {
        "encoding": "inplace",
        "label": "address",
        "numberOfBytes": "20"
      },
      "t_bool": {
        "encoding": "inplace",
        "label": "bool",
        "numberOfBytes": "1"
      },
      "t_bytes32": {
        "encoding": "inplace",
        "label": "bytes32",
        "numberOfBytes": "32"
      },
      "t_bytes_memory_ptr": {
        "encoding": "bytes",
        "label": "bytes",
        "numberOfBytes": "32"
      },
      "t_bytes_storage": {
        "encoding": "bytes",
        "label": "bytes",
        "numberOfBytes": "32"
      },
      "t_mapping(t_address,t_mapping(t_address,t_uint256))": {
        "encoding": "mapping",
        "key": "t_address",
        "label": "mapping(address => mapping(address => uint256))",
        "numberOfBytes": "32",
        "value": "t_mapping(t_address,t_uint256)"
      },
      "t_mapping(t_address,t_uint256)": {
        "encoding": "mapping",
        "key": "t_address",
        "label": "mapping(address => uint256)",
        "numberOfBytes": "32",
        "value": "t_uint256"
      },
      "t_mapping(t_bytes_memory_ptr,t_mapping(t_uint64,t_bool))": {
        "encoding": "mapping",
        "key": "t_bytes_memory_ptr",
        "label": "mapping(bytes => mapping(uint64 => bool))",
        "numberOfBytes": "32",
        "value": "t_mapping(t_uint64,t_bool)"
      },
      "t_mapping(t_bytes_memory_ptr,t_mapping(t_uint64,t_bytes32))": {
        "encoding": "mapping",
        "key": "t_bytes_memory_ptr",
        "label": "mapping(bytes => mapping(uint64 => bytes32))",
        "numberOfBytes": "32",
        "value": "t_mapping(t_uint64,t_bytes32)"
      },
      "t_mapping(t_uint16,t_bytes_storage)": {
        "encoding": "mapping",
        "key": "t_uint16",
        "label": "mapping(uint16 => bytes)",
        "numberOfBytes": "32",
        "value": "t_bytes_storage"
      },
      "t_mapping(t_uint16,t_mapping(t_bytes_memory_ptr,t_mapping(t_uint64,t_bool)))": {
        "encoding": "mapping",
        "key": "t_uint16",
        "label": "mapping(uint16 => mapping(bytes => mapping(uint64 => bool)))",
        "numberOfBytes": "32",
        "value": "t_mapping(t_bytes_memory_ptr,t_mapping(t_uint64,t_bool))"
      },
      "t_mapping(t_uint16,t_mapping(t_bytes_memory_ptr,t_mapping(t_uint64,t_bytes32)))": {
        "encoding": "mapping",
        "key": "t_uint16",
        "label": "mapping(uint16 => mapping(bytes => mapping(uint64 => bytes32)))",
        "numberOfBytes": "32",
        "value": "t_mapping(t_bytes_memory_ptr,t_mapping(t_uint64,t_bytes32))"
      },
      "t_mapping(t_uint16,t_mapping(t_uint16,t_uint256))": {
        "encoding": "mapping",
        "key": "t_uint16",
        "label": "mapping(uint16 => mapping(uint16 => uint256))",
        "numberOfBytes": "32",
        "value": "t_mapping(t_uint16,t_uint256)"
      },
      "t_mapping(t_uint16,t_struct(FeeConfig)2333_storage)": {
        "encoding": "mapping",
        "key": "t_uint16",
        "label": "mapping(uint16 => struct Fee.FeeConfig)",
        "numberOfBytes": "32",
        "value": "t_struct(FeeConfig)2333_storage"
      },
      "t_mapping(t_uint16,t_uint256)": {
        "encoding": "mapping",
        "key": "t_uint16",
        "label": "mapping(uint16 => uint256)",
        "numberOfBytes": "32",
        "value": "t_uint256"
      },
      "t_mapping(t_uint64,t_bool)": {
        "encoding": "mapping",
        "key": "t_uint64",
        "label": "mapping(uint64 => bool)",
        "numberOfBytes": "32",
        "value": "t_bool"
      },
      "t_mapping(t_uint64,t_bytes32)": {
        "encoding": "mapping",
        "key": "t_uint64",
        "label": "mapping(uint64 => bytes32)",
        "numberOfBytes": "32",
        "value": "t_bytes32"
      },
      "t_string_storage": {
        "encoding": "bytes",
        "label": "string",
        "numberOfBytes": "32"
      },
      "t_struct(FeeConfig)2333_storage": {
        "encoding": "inplace",
        "label": "struct Fee.FeeConfig",
        "members": [
          {
            "astId": 2330,
            "contract": "contracts/oftv2/Alien.sol:Alien",
            "label": "feeBP",
            "offset": 0,
            "slot": "0",
            "type": "t_uint16"
          },
          {
            "astId": 2332,
            "contract": "contracts/oftv2/Alien.sol:Alien",
            "label": "enabled",
            "offset": 2,
            "slot": "0",
            "type": "t_bool"
          }
        ],
        "numberOfBytes": "32"
      },
      "t_uint16": {
        "encoding": "inplace",
        "label": "uint16",
        "numberOfBytes": "2"
      },
      "t_uint256": {
        "encoding": "inplace",
        "label": "uint256",
        "numberOfBytes": "32"
      },
      "t_uint64": {
        "encoding": "inplace",
        "label": "uint64",
        "numberOfBytes": "8"
      }
    }
  }
}